:100000000C9434000C9451000C9451000C94510049
:100010000C9451000C9451000C9451000C9451001C
:100020000C9451000C9451000C9451000C9451000C
:100030000C9451000C9451000C9451000C945100FC
:100040000C9477040C9451000C9451000C945100C2
:100050000C9451000C9451000C9451000C945100DC
:100060000C9451000C94510011241FBECFEFD4E02A
:10007000DEBFCDBF11E0A0E0B1E0E0E0FEE002C0F5
:1000800005900D92A431B107D9F711E0A4E1B1E0D8
:1000900001C01D92A332B107E1F70E9468040C94DD
:1000A000FE060C94D302A0E0B0E0E9E5F0E00C9489
:1000B000CF06EC01A880B980CA80DB80A114B1040E
:1000C000C104D10441F484E2A82E89EDB82E8BE559
:1000D000C82E87E0D82EC601B5012DE133EF41E0EF
:1000E00050E00E948A0627EA31E440E050E00E9496
:1000F0006B067B018C01C601B5012DE133EF41E0B8
:1001000050E00E948A06CA01B9012CEE34EF4FEF8D
:100110005FEF0E946B066E0D7F1D801F911F97FF82
:1001200004C06150704080409048688379838A831E
:100130009B839B01AC015F77B901CA01CDB7DEB7E4
:10014000EAE00C94EB060E945300089580E091E0F1
:100150000E94530008956093000170930101809301
:100160000201909303010895EF92FF920F931F9362
:10017000DF93CF9300D000D0CDB7DEB79AE3998359
:100180008A834B836C83FE01319698E0E92E8CE0E4
:10019000F82EA0E8B0E008E214E1BE016B5F7F4FEB
:1001A00026C02A9A8E2D8A95F1F72A988F2D8A9546
:1001B000F1F7CD01022E02C0959587950A94E2F7DA
:1001C00084239523892B11F02A9A01C02A98802F25
:1001D0008A95F1F72A98812F8A95F1F72F5F3F4F83
:1001E00028303105F1F63196E617F70731F08081B6
:1001F000482F50E020E030E0D4CF80EF90E001972E
:10020000F1F70F900F900F900F90CF91DF911F910A
:100210000F91FF90EF9008952F923F924F925F922F
:100220006F927F928F929F92AF92BF92CF92DF9206
:10023000EF92FF920F931F935B016C0139014A010A
:100240001701280120E030E040E050E00E945F0507
:10025000882354F40F2EF0E0AF2EF0E0BF2EF0E034
:10026000CF2EF0E0DF2EF02DC401B30120E030E00E
:1002700040E050E00E945F05882354F40F2EF0E028
:100280006F2EF0E07F2EF0E08F2EF0E09F2EF02D0D
:10029000C201B10120E030E040E050E00E945F0583
:1002A000882354F40F2EF0E02F2EF0E03F2EF0E0E4
:1002B0004F2EF0E05F2EF02DC601B50120E030E0BA
:1002C00048EC52E40E940406181654F40F2EF0E095
:1002D000AF2EF0E0BF2EF8ECCF2EF2E4DF2EF02DA3
:1002E000C401B30120E030E048EC52E40E9404066F
:1002F000181654F40F2EF0E06F2EF0E07F2EF8EC7D
:100300008F2EF2E49F2EF02DC201B10120E030E0EB
:1003100048EC52E40E940406181654F40F2EF0E044
:100320002F2EF0E03F2EF8EC4F2EF2E45F2EF02D52
:10033000C601B50123E333E343E250E40E9408061B
:100340000E9463055B016C01C401B30123E333E345
:1003500043E250E40E9408060E9463057B018C0181
:10036000C201B10123E333E343E250E40E940806F3
:100370000E9463059B01AC018A2D6E2D422F0E94C5
:10038000B4001F910F91FF90EF90DF90CF90BF903E
:10039000AF909F908F907F906F905F904F903F9025
:1003A0002F900895CF93DF93EC01909319018093E0
:1003B0001801009731F480E060E040E00E94B40052
:1003C0001BC08130910531F482E360E040E00E947F
:1003D000B4001BC08230910531F482E360E240E05A
:1003E0000E94B40018C08330910531F482E362E3C7
:1003F00040E00E94B40016C0C430D10531F480E062
:1004000062E340E00E94B40013C0C530D10519F486
:1004100080E060E011C0C630D10521F48AE060E0E0
:100420004EE10BC0C730D10519F482E36EE104C080
:10043000289729F482E362E342E30E94B400DF914B
:10044000CF910895F999FECF84E190E092BD81BDEE
:10045000F89A30B5F999FECF85E190E092BD81BD63
:10046000F89A20B5922F80E0830F911D9093170189
:1004700080931601F999FECF82E190E092BD81BD93
:10048000F89A30B5F999FECF83E190E092BD81BD35
:10049000F89A20B5922F80E0830F911D909315015B
:1004A00080931401F999FECF82E090E092BD81BD66
:1004B000F89A80B590E08F3F910521F09093050167
:1004C00080930401F999FECF84E090E092BD81BD54
:1004D000F89A80B590E08F3F910521F09093070145
:1004E00080930601F999FECF86E090E092BD81BD30
:1004F000F89A80B590E08F3F910521F09093090123
:1005000080930801F999FECF88E090E092BD81BD0B
:10051000F89A80B590E08F3F910521F090930B0100
:1005200080930A01F999FECF8AE090E092BD81BDE7
:10053000F89A80B590E08F3F910521F090930D01DE
:1005400080930C01F999FECF8CE090E092BD81BDC3
:10055000F89A80B590E08F3F910521F090930F01BC
:1005600080930E01F999FECF80E190E092BD81BDAC
:10057000F89A80B590E08F3F910521F0909311019A
:1005800080931001F999FECF8EE090E092BD81BD7D
:10059000F89A80B590E08F3F910521F09093130178
:1005A0008093120108951F920F920FB60F9211249B
:1005B0001F932F933F934F935F936F937F938F93EB
:1005C0009F93AF93BF93CF93DF93EF93FF932998BC
:1005D00017BC409818BCF894299817BC409818BCD0
:1005E00014E6C0E6DAEE812F60E040E00E94B4003D
:1005F000CE010197F1F7299817BC409818BC155007
:1006000091F757985F9829E088E190E00FB6F89449
:10061000A895809360000FBE20936000FFCFAF923B
:10062000BF92CF92DF92EF92FF920F931F93CF93DF
:10063000DF9320E030E04AE754E40E9408065B01C3
:100640006C01CCE2D1E009C080E593ECFE0131976A
:10065000F1F70197D9F757016801C601B50120E00C
:1006600030E44CE955E40E94FA047B018C0120E05F
:1006700030E040E050E00E94040618162CF3C6015A
:10068000B50120E030E84BE355E40E9408067B0109
:100690008C0120E030E040E85FE30E945F058823A2
:1006A0001CF461E070E024C0C801B70120E03FEF16
:1006B0004FE757E40E9404061816B4F4C601B501CA
:1006C00020E030E040E251E40E9408060E94630509
:1006D0008CE291E005C0FC013197F1F76150704068
:1006E00061157105C1F707C0C801B7010E94630514
:1006F000CB010197F1F7DF91CF911F910F91FF90FF
:10070000EF90DF90CF90BF90AF9008951F93CF935D
:10071000DF9381E085BF15BE1DBA8093680080E23B
:1007200080936B007894F999FECF12BC11BCF89AB3
:1007300080B58823D1F4F999FECF1FBA12BC11BC41
:1007400081E080BD0FB6F894FA9AF99A0FBE18BCF2
:1007500017BC14B815B817B818B81AB81BB85898F9
:10076000789485E083BF88953EC0F999FECF1FBA83
:1007700012BC11BC10BC0FB6F894FA9AF99A0FBECD
:100780000E94220214B815B817B818B81AB81BB8C6
:10079000579A5F9A229A80E060E040E00E94B4009D
:1007A000219A389A579A5F9A229A82E480937C0021
:1007B00081E880937A0018BC17BC29984098299842
:1007C00017BC409818BC559A569A84B5816A84BD66
:1007D00083E085BD18BC17BC2998409880E060E094
:1007E00040E00E94B40088EE93E02CE231E0F90191
:1007F0003197F1F70197D9F710E0CCE2D1E085E02D
:1008000090E00E94D2018CEB92E0FE013197F1F76B
:100810000197D9F780E090E00E94D2018CEB92E042
:10082000FE013197F1F70197D9F71F5F133039F7C0
:1008300088EE93E02CE231E0F9013197F1F701976E
:10084000D9F7DF91CF911F9108950E94860381E02F
:1008500090E00E946F0408950895EF92FF920F9325
:100860001F930E94250460E070E080EA91E420E09C
:1008700030E040EF51E40F2EF0E0EF2EF0E0FF2EDD
:10088000F0E60F2FF1E41F2FF02D0E940C0160E025
:1008900070E080E09FE30E940F0360E070E088E476
:1008A00092E420E030E040E050E00F2EF0E0EF2E48
:1008B000F0E0FF2EF2E80F2FF2E41F2FF02D0E9440
:1008C0000C0160E070E080E09FE30E940F03CBCF5B
:1008D0000E94BF040E942D040E942C04FDCF0097AB
:1008E00029F0BC0180E090E00E94AB0008951F92C7
:1008F0000F920FB60F9211242F933F938F939F93D4
:10090000AF93BF9380911E0190911F01A091200190
:10091000B0912101309122010196A11DB11D232F1B
:100920002D5F2D3720F02D570196A11DB11D20936D
:10093000220180931E0190931F01A0932001B09388
:10094000210180911A0190911B01A0911C01B0918D
:100950001D010196A11DB11D80931A0190931B01E9
:10096000A0931C01B0931D01BF91AF919F918F91F6
:100970003F912F910F900FBE0F901F901895789474
:1009800084B5826084BD84B5816084BD85B5826094
:1009900085BD85B5816085BDEEE6F0E08081816032
:1009A0008083E1E8F0E01082808182608083808132
:1009B00081608083E0E8F0E0808181608083E1EB0A
:1009C000F0E0808184608083E0EBF0E080818160F2
:1009D0008083EAE7F0E080818460808380818260A8
:1009E0008083808181608083808180688083109291
:1009F000C10008955058BB27AA270ED0CBC0BCD049
:100A000030F0C1D020F031F49F3F11F41EF4B1C09A
:100A10000EF4E095E7FBA7C0E92FCDD080F3BA171D
:100A2000620773078407950718F071F49EF5E5C017
:100A30000EF4E0950B2EBA2FA02D0B01B9019001F9
:100A40000C01CA01A0011124FF27591B99F0593F3D
:100A500050F4503E68F11A16F040A22F232F342F85
:100A60004427585FF3CF469537952795A795F040D3
:100A70005395C9F77EF41F16BA0B620B730B840BE8
:100A8000BAF09150A1F0FF0FBB1F661F771F881FA0
:100A9000C2F70EC0BA0F621F731F841F48F48795F8
:100AA00077956795B795F7959E3F08F0B3CF9395E7
:100AB000880F08F09927EE0F9795879508952FD006
:100AC00008F481E008957FD088F09F5790F0B92F07
:100AD0009927B751A0F0D1F0660F771F881F991F93
:100AE0001AF0BA95C9F712C0B13081F086D0B1E0E2
:100AF000089583C0672F782F8827B85F39F0B93FF2
:100B0000CCF3869577956795B395D9F73EF4909594
:100B10008095709561957F4F8F4F9F4F0895990FE6
:100B20000008550FAA0BE0E8FEEF16161706E807B7
:100B3000F907C0F012161306E407F50798F0621BD8
:100B4000730B840B950B39F40A2661F0232B242BAD
:100B5000252B21F408950A2609F4A140A6958FEFCC
:100B6000811D811D089597F99F6780E870E060E01E
:100B700008959FEF80EC089500240A941616170636
:100B800018060906089500240A941216130614067E
:100B900005060895092E0394000C11F4882352F0E1
:100BA000BB0F40F4BF2B11F460FF04C06F5F7F4F99
:100BB0008F4F9F4F089557FD9058440F551F59F080
:100BC0005F3F71F04795880F97FB991F61F09F3F3A
:100BD00079F087950895121613061406551FF2CF63
:100BE0004695F1DF08C0161617061806991FF1CFB3
:100BF00086957105610508940895E894BB276627DA
:100C00007727CB0197F908958ADF08F48FEF0895CD
:100C10000BD0C0CFB1DF28F0B6DF18F0952309F074
:100C2000A2CFA7CF1124EACFC6DFA0F3959FD1F3BF
:100C3000950F50E0551F629FF001729FBB27F00D8A
:100C4000B11D639FAA27F00DB11DAA1F649F6627DF
:100C5000B00DA11D661F829F2227B00DA11D621F2E
:100C6000739FB00DA11D621F839FA00D611D221FE8
:100C7000749F3327A00D611D231F849F600D211DCC
:100C8000822F762F6A2F11249F5750408AF0E1F06F
:100C900088234AF0EE0FFF1FBB1F661F771F881FB8
:100CA00091505040A9F79E3F510570F05CCFA6CF00
:100CB0005F3FECF3983EDCF3869577956795B795A3
:100CC000F795E7959F5FC1F7FE2B880F911D9695CD
:100CD000879597F90895629FD001739FF001829FD5
:100CE000E00DF11D649FE00DF11D929FF00D839FBB
:100CF000F00D749FF00D659FF00D9927729FB00D58
:100D0000E11DF91F639FB00DE11DF91FBD01CF016A
:100D10001124089597FB092E05260ED057FD04D007
:100D200014D00AD0001C38F4509540953095219588
:100D30003F4F4F4F5F4F0895F6F790958095709510
:100D400061957F4F8F4F9F4F0895A1E21A2EAA1BE6
:100D5000BB1BFD010DC0AA1FBB1FEE1FFF1FA2176B
:100D6000B307E407F50720F0A21BB30BE40BF50B68
:100D7000661F771F881F991F1A9469F760957095F1
:100D8000809590959B01AC01BD01CF0108952F92F4
:100D90003F924F925F926F927F928F929F92AF920B
:100DA000BF92CF92DF92EF92FF920F931F93CF9358
:100DB000DF93CDB7DEB7CA1BDB0B0FB6F894DEBFEF
:100DC0000FBECDBF09942A88398848885F846E8415
:100DD0007D848C849B84AA84B984C884DF80EE805F
:100DE000FD800C811B81AA81B981CE0FD11D0FB668
:100DF000F894DEBF0FBECDBFED010895F894FFCF8C
:100E000001000000CA00CA0033003300CA002A00F3
:100E1000CA002A00FFFFFFFFFFFFFFFFFFFFFFFFEA
:100E2000FFFFFFFFFFFFFFFFFFFFFFFFFFFFFFFFD2
:100E3000FFFFFFFFFFFFFFFFFFFFFFFFFFFFFFFFC2
:100E4000FFFFFFFFFFFFFFFFFFFFFFFFFFFFFFFFB2
:100E5000FFFFFFFFFFFFFFFFFFFFFFFFFFFFFFFFA2
:100E6000FFFFFFFFFFFFFFFFFFFFFFFFFFFFFFFF92
:100E7000FFFFFFFFFFFFFFFFFFFFFFFFFFFFFFFF82
:100E8000A2CFA7CF1124EACFC6DFA0F3959FD1F35D
:100E9000950F50E0551F629FF001729FBB27F00D28
:100EA000B11D639FAA27F00DB11DAA1F649F66277D
:100EB000B00DA11D661F829F2227B00DA11D621FCC
:100EC000739FB00DA11D621F839FA00D611D221F86
:100ED000749F3327A00D611D231F849F600D211D6A
:100EE000822F762F6A2F11249F5750408AF0E1F00D
:100EF00088234AF0EE0FFF1FBB1F661F771F881F56
:100F000091505040A9F79E3F510570F05CCFA6CF9D
:100F10005F3FECF3983EDCF3869577956795B79540
:100F2000F795E7959F5FC1F7FE2B880F911D96956A
:100F3000879597F90895629FD001739FF001829F72
:100F4000E00DF11D649FE00DF11D929FF00D839F58
:100F5000F00D749FF00D659FF00D9927729FB00DF5
:100F6000E11DF91F639FB00DE11DF91FBD01CF0108
:100F70001124089597FB092E05260ED057FD04D0A5
:100F800014D00AD0001C38F4509540953095219526
:100F90003F4F4F4F5F4F0895F6F7909580957095AE
:100FA00061957F4F8F4F9F4F0895A1E21A2EAA1B84
:100FB000BB1BFD010DC0AA1FBB1FEE1FFF1FA21709
:100FC000B307E407F50720F0A21BB30BE40BF50B06
:100FD000661F771F881F991F1A9469F7609570958F
:100FE000809590959B01AC01BD01CF0108952F9292
:100FF0003F924F925F926F927F928F929F92AF92A9
:10100000BF92CF92DF92EF92FF920F931F93CF93F5
:10101000DF93CDB7DEB7CA1BDB0B0FB6F894DEBF8C
:101020000FBECDBF09942A88398848885F846E84B2
:101030007D848C849B84AA84B984C884DF80EE80FC
:10104000FD800C811B81AA81B981CE0FD11D0FB605
:10105000F894DEBF0FBECDBFED010895F894FFCF29
:1010600001000000CA00CA0033003300CA002A0091
:10107000CA002A00FFFFFFFFFFFFFFFFFFFFFFFF88
:1010800031054105510521F021E030E040E050E01C
:1010900079018A01E628F728082919293CC0232B61
:1010A000D1F1260E371E35014601062E04C0969456
:1010B0008794779467940A94D2F721E030E040E077
:1010C00050E004C0220F331F441F551F6A95D2F70A
:1010D00021503040404050402A213B214C215D218D
:1010E000211531054105510521F021E030E040E0B6
:1010F00050E059016A01A628B728C828D9280BC092
:10110000821593052CF01C01AA24BB24650103C0A1
:10111000EE24FF24870111969C91D20111968C91A7
:10112000981709F445C0992339F0A80197012A19A5
:101130003B094C095D0906C0A60195012E193F091E
:10114000400B510B57FD08C0118233822282248349
:101150003583468357831DC081E081833382228299
:1011600088279927DC01821B930BA40BB50B848382
:101170009583A683B7830DC0220F331F441F551FCD
:101180002483358346835783828193810197938398
:1011900082832481358146815781DA01C901019713
:1011A000A109B1098F5F9F4FAF4FBF4328F30BC019
:1011B000918333822282EA0CFB1C0C1D1D1DE482EC
:1011C000F5820683178383E08083248135814681FD
:1011D000578157FF1AC0C901AA2797FDA095BA2FBA
:1011E00081709070A070B07056954795379527958F
:1011F000822B932BA42BB52B84839583A683B78353
:1012000082819381019693838283DF0101C0D201A1
:10121000CD01CDB7DEB7E2E10C949D0CA0E2B0E0C9
:10122000E4E1F9E00C948D0C69837A838B839C83D1
:101230002D833E834F835887E9E0EE2EF12CEC0E90
:10124000FD1ECE010196B7010E94090C8E010F5EB2
:101250001F4FCE010596B8010E94090C8A8991E0C2
:1012600089278A8BC701B801AE01475E5F4F0E9494
:10127000C2070E94340BA096E6E00C94A90CA0E2F1
:10128000B0E0E5E4F9E00C948D0C69837A838B83FC
:101290009C832D833E834F835887F9E0EF2EF12CFA
:1012A000EC0EFD1ECE010196B7010E94090C8E01C5
:1012B0000F5E1F4FCE010596B8010E94090CC701B1
:1012C000B801AE01475E5F4F0E94C2070E94340B17
:1012D000A096E6E00C94A90CA8E1B0E0E2E7F9E002
:1012E0000C94890C69837A838B839C832D833E8342
:1012F0004F835887B9E0EB2EF12CEC0EFD1ECE018A
:101300000196B7010E94090C8E010F5E1F4FCE019E
:101310000596B8010E94090C2985223008F47EC088
:101320003989323010F4B8017CC08A859A898927BE
:101330008A87243011F0223031F4231709F06EC06F
:1013400062E171E06EC0343039F41D861E861F865E
:10135000188A1C861B8604C0323021F484E08987F9
:10136000B7015FC02B853C858B899C89281B390B75
:101370003C872B87ED84FE840F851889AD88BE8855
:10138000CF88D88CEA14FB040C051D0540F4EE0C44
:10139000FF1C001F111F215030403C872B8720E08D
:1013A00030E040E050E080E090E0A0E0B0E460E0B9
:1013B00070E0EA14FB040C051D0540F0282B392BC6
:1013C0004A2B5B2BEA18FB080C091D09B695A7955B
:1013D00097958795EE0CFF1C001F111F6F5F7F4FC5
:1013E0006F31710531F7DA01C9018F779070A07004
:1013F000B07080349105A105B10561F427FD0AC0E4
:10140000E114F1040105110529F0205C3F4F4F4F15
:101410005F4F20782D873E874F87588BBE01675FCF
:101420007F4FCB010E94340B6896EAE00C94A50C28
:10143000ACE0B0E0EEE1FAE00C94910C69837A83C1
:101440008B839C83CE010196BE016B5F7F4F0E9410
:10145000090C8D81823061F1823050F1843021F4A9
:101460008E81882351F12EC02F81388537FD20C011
:101470006E812F3131051CF06623F9F023C08EE117
:1014800090E0821B930B29853A854B855C8504C0CF
:1014900056954795379527958A95D2F76623B1F0EB
:1014A00050954095309521953F4F4F4F5F4F0EC05F
:1014B00020E030E040E050E009C02FEF3FEF4FEF79
:1014C0005FE704C020E030E040E050E8B901CA0125
:1014D0002C96E2E00C94AD0CA8E0B0E0E2E7FAE074
:1014E0000C94890C7B018C016115710581059105B6
:1014F00019F482E0898360C083E089838EE1C82E7D
:10150000D12CDC82CB82ED82FE820F831887C8014A
:10151000B7010E94E50AFC013197F7FF3BC0222783
:1015200033272E1B3F0B57016801022E04C0D694AF
:10153000C794B794A7940A94D2F740E050E060E0D3
:1015400070E081E090E0A0E0B0E004C0880F991F57
:10155000AA1FBB1F2A95D2F70197A109B1098E21B5
:101560009F21A023B1230097A105B10521F041E0FF
:1015700050E060E070E04A295B296C297D294D83A9
:101580005E836F8378878EE190E08E1B9F0B9C8338
:101590008B8312C0309781F00E2E04C0EE0CFF1C1E
:1015A000001F111F0A94D2F7ED82FE820F83188765
:1015B000CE1ADF0ADC82CB821A82CE0101960E940B
:1015C000340B2896EAE00C94A50CEF92FF920F934F
:1015D0001F937B018C0180E0E81680E0F80681E033
:1015E000080780E0180788F48FEFE816F10401057A
:1015F000110531F028F088E090E0A0E0B0E017C0DD
:1016000080E090E0A0E0B0E012C080E0E81680E06A
:10161000F80680E0080781E0180728F088E190E0EC
:10162000A0E0B0E004C080E190E0A0E0B0E020E203
:1016300030E040E050E0281B390B4A0B5B0B04C044
:1016400016950795F794E7948A95D2F7F701E65E29
:10165000FE4F8081281B310941095109C9011F91A1
:101660000F91FF90EF900895DF92EF92FF920F930A
:101670001F93FC01E480F58006811781D180808171
:10168000823048F480E090E0A0E1B0E0E82AF92A56
:101690000A2B1B2BA5C0843009F49FC0823021F493
:1016A000EE24FF24870105C0E114F10401051105B2
:1016B00019F4E0E0F0E096C0628173819FEF623838
:1016C00079070CF05BC022E83FEF261B370B2A316D
:1016D00031052CF020E030E040E050E02AC0B801B5
:1016E000A701022E04C076956795579547950A94F1
:1016F000D2F781E090E0A0E0B0E004C0880F991F2D
:10170000AA1FBB1F2A95D2F70197A109B1098E2103
:101710009F21A023B1230097A105B10521F081E00D
:1017200090E0A0E0B0E09A01AB01282B392B4A2BC6
:101730005B2BDA01C9018F779070A070B070803494
:101740009105A105B10539F427FF09C0205C3F4F81
:101750004F4F5F4F04C0215C3F4F4F4F5F4FE0E062
:10176000F0E02030A0E03A07A0E04A07A0E45A07E2
:1017700010F0E1E0F0E079018A0127C060387105DE
:1017800064F5FB01E158FF4FD801C7018F779070D6
:10179000A070B07080349105A105B10539F4E7FE61
:1017A0000DC080E490E0A0E0B0E004C08FE390E0E2
:1017B000A0E0B0E0E80EF91E0A1F1B1F17FF05C0CE
:1017C00016950795F794E794319687E01695079557
:1017D000F794E7948A95D1F705C0EE24FF2487019A
:1017E000EFEFF0E06E2F679566276795902F9F7754
:1017F000D794DD24D7948E2F8695492F462B582FCA
:101800005D29B701CA011F910F91FF90EF90DF9002
:101810000895FC01DB01408151812281622F6F77A5
:1018200070E0221F2227221F9381892F880F822B8D
:10183000282F30E0991F9927991F11969C93119793
:1018400021153105A9F5411551056105710511F401
:1018500082E037C082E89FEF13969C938E93129795
:101860009A01AB0167E0220F331F441F551F6A9591
:10187000D1F783E08C930DC0220F331F441F551FF7
:1018800012968D919C911397019713969C938E932A
:101890001297203080E0380780E0480780E458073E
:1018A00058F314962D933D934D935C931797089599
:1018B0002F3F310579F4411551056105710519F482
:1018C00084E08C93089564FF03C081E08C9312C080
:1018D0001C9210C02F57304013963C932E931297B2
:1018E00083E08C9387E0440F551F661F771F8A950E
:1018F000D1F7706414964D935D936D937C93179715
:1019000008952F923F924F925F926F927F928F92A3
:101910009F92AF92BF92CF92DF92EF92FF920F937E
:101920001F93CF93DF93CDB7DEB7CA1BDB0B0FB688
:10193000F894DEBF0FBECDBF09942A883988488845
:101940005F846E847D848C849B84AA84B984C884DB
:10195000DF80EE80FD800C811B81AA81B981CE0FD2
:10196000D11D0FB6F894DEBF0FBECDBFED010895B7
:10197000F894FFCF8813CA00CA0033003300CA00AE
:101980002A00CA002A000000000000000000000138
:10199000020203030303040404040404040405050D
:1019A00005050505050505050505050505050606E5
:1019B00006060606060606060606060606060606C7
:1019C00006060606060606060606060606060707B5
:1019D0000707070707070707070707070707070797
:1019E0000707070707070707070707070707070787
:1019F0000707070707070707070707070707070777
:101A00000707070707070707070707070707080864
:101A10000808080808080808080808080808080846
:101A20000808080808080808080808080808080836
:101A30000808080808080808080808080808080826
:101A40000808080808080808080808080808080816
:101A50000808080808080808080808080808080806
:101A600008080808080808080808080808080808F6
:101A700008080808080808080808080808080808E6
:101A80000808080808080808080808080808FFFFE8
:101A9000FFFFFFFFFFFFFFFFFFFFFFFFFFFFFFFF56
:101AA000FFFFFFFFFFFFFFFFFFFFFFFFFFFFFFFF46
:101AB000FFFFFFFFFFFFFFFFFFFFFFFFFFFFFFFF36
:101AC000FFFFFFFFFFFFFFFFFFFFFFFFFFFFFFFF26
:103800006BC00000AAC000008EC000008CC0000089
:103810008AC0000088C0000086C0000084C000008C
:1038200082C0000080C000007EC000007CC000009C
:103830007AC0000078C0000076C0000074C00000AC
:1038400072C0000070C000006EC000006CC00000BC
:103850006AC0000068C0000066C0000064C00000CC
:1038600062C0000060C00000EC2DFD2DB7B6B0FCBA
:10387000FDCF27BFE895B7B6B0FCFDCF21E1B7B6C5
:10388000B6FCF4CF0895090212000101008032094C
:10389000040000000000000012011001FF000008F9
:1038A000C016DC050201010200010E0355005300A1
:1038B00042006100730070001C03770077007700FE
:1038C0002E00660069007300630068006C002E0023
:1038D000640065000403090411241FBECFEFD4E087
:1038E000DEBFCDBF24B7D4E0CEEF39913C31399162
:1038F00009F03FEF30933D0120933C0111E0A0E03F
:10390000B1E0E2EFFFE302C005900D92A630B107EF
:10391000D9F711E0A6E0B1E001C01D92AC33B107C8
:10392000E1F75FD164C36CCFA82FB92F80E090E09E
:1039300041E050EA609530E009C02D9182279795CB
:10394000879510F084279527305EC8F36F5FA8F342
:103950000895EADF8D939D930895CF93CFB7CF93CA
:10396000C3954B9BE9F74B9B09C04B9B07C04B9BF7
:1039700005C04B9B03C04B9B01C0A1C0DF93C0910E
:103980001F01DD27CA5DDE4F4B9B02C0DF91EBCFED
:103990002F930F931F9309B12FEF03FB20F94F9340
:1039A0003F9319B14FEF012703FB21F93BE031C0F1
:1039B0004E7F012F19B1216028C0102F4D7F22604A
:1039C000000009B129C04B7F2460012F000019B10C
:1039D0002BC019B1477F28602AC04F7E09B12061F2
:1039E0002CC04F7D19B120622FC04F7B09B12064DC
:1039F00032C0422709B149934FEF0000102713FB53
:103A000020F919B11C70C9F1297F91F2012703FB3C
:103A100021F909B1237F89F2315058F1102713FBA6
:103A200022F919B1277E79F2012703FB23F92F7CB4
:103A300081F209B1102713FB24F92F7971F200C02C
:103A400019B1012703FB25F92F7359F200C009B101
:103A5000102713FB26F9223040F200C019B10127CC
:103A600003FB27F9243028F64F77206819B10000AE
:103A7000F9CF11E01CBB002717C03B503195C31B89
:103A8000D04011E01CBB0881033CE9F00B34D9F0B5
:103A900020911D011981110F1213EDCF093641F14B
:103AA0000D3211F0013E39F7009324013F914F91FF
:103AB0001F910F912F91DF91CCB3C0FD51CFCF91CA
:103AC000CFBFCF91189520912401222379F3109133
:103AD0002201112311F5343012F130932201209389
:103AE0001E0110911F013BE0311B30931F0117C0D5
:103AF0000091220101308CF40AE53091000134FD7F
:103B000010C000930001C2E1D1E00FC02795A8F4D6
:103B10005150A9F4220F0000F9CF4AE503C042ED4D
:103B200001C0432FC4E1D0E032E01AB11C605B9ABF
:103B30001AB90BB120E41CE05F93012756E00BB9E2
:103B4000279520F4515021F4220FF9CF012756E098
:103B500000003B5A0BB9D0F2279528F4515029F4B4
:103B6000220F0000F9CF012756E027950BB920F46A
:103B7000515021F4220FF9CF012756E02991332328
:103B80000BB921F6037F10912301110FC651D040CC
:103B90000BB911F010931D0111E01CBB08601AB1A4
:103BA000137F402F437F5F9100C000C00BB91AB94B
:103BB0004BB97CCF31978040E9F70895DC0114962A
:103BC000EC91149712968C91803331F4E370F0E00D
:103BD000EE5FFE4F808108958F3F09F411EF80E082
:103BE000089584B7877F84BF88E10FB6F8948093E7
:103BF0006000109260000FBE14B880E285B981E0C9
:103C000085BF82E085BF83E0D5DF80913C01877F5F
:103C100021F480913D01882381F01D990EC0F89414
:103C2000539A15B81DBA1092690081E085BF15BE80
:103C3000E0911001F091110109951EEF14BE8091E1
:103C40006900826080936900E89A539A8CE0B2DF41
:103C50005398789400912201035007FD27C1809169
:103C60001F01CCE0D0E0C81BD109CA5DDE4F8091B6
:103C70001E018D3209F0B3C0083009F015C183EC84
:103C8000809312018AE580930001109206018881D9
:103C900080762981882399F187E091E09093210132
:103CA00080932001233031F4CE0188DF80930A0114
:103CB00024E08BC02530F9F02A30E9F0822F8450BF
:103CC000863098F48A819B8190930C0180930B013C
:103CD000293099F08E8180930D018D8182708093BF
:103CE0000E0120930F012FEF69C0223011F41E7FC7
:103CF00004C0116002C021E068C020E066C08A8173
:103D000010921B01211106C010921C018BE191E061
:103D100022E04EC0253019F4809323013DC02630A7
:103D2000A9F59B81913019F488E998E304C0923099
:103D300041F486E898E3909321018093200122E1E9
:103D400021C09330F1F4811108C084ED98E3909381
:103D500021018093200124E015C0813041F488EBDB
:103D600098E390932101809320012CE10BC08230D5
:103D700041F48AEA98E390932101809320012EE098
:103D800001C020E080E48093060116C0283069F06D
:103D9000293029F4809325018BE191E004C08BE167
:103DA00091E02A3021F020E003C085E291E021E09B
:103DB00090932101809320012F3F39F4888187FD62
:103DC0002E8180E88093060107C08F81811104C095
:103DD0008E81821708F4282F2093010165C08091FD
:103DE000060187FF61C080910D01801708F4082F3C
:103DF000801B80930D01DD24D3948111D12C8091FF
:103E00000F018730B0F07E010FC0D7016D917D01A9
:103E100080910B0190910C019C012F5F3F4F3093DB
:103E20000C0120930B01D5D08E2D8C1B801768F3CD
:103E300038C080910E01E0910B01F0910C01DE0180
:103E400000FD0395025048F1F83338F522D0F8947C
:103E50000D901D9021E017D02E2F2E5F2F7731F07F
:103E6000DD2079F0882369F0003059F423E00BD08D
:103E700010D025E008D00DD007B606FE02C021E123
:103E800002D03296DFCFF89427BFE89511247894BA
:103E9000089507B600FCFDCF0895F0930C01E09360
:103EA0000B01D110109201011092220180910001AA
:103EB00084FF71C0809101018F3F09F46CC0082F0D
:103EC000893008F008E0801B809301018091120185
:103ED00098E8892780931201002309F44BC0809150
:103EE000060187FF29C080910D01801708F4082F73
:103EF000801B80930D01D0900F01C3E1D1E015C06C
:103F0000E0900B01F0900C01B6E0BD1518F4C7016C
:103F100058D002C0F701849188832196FFEFEF1AF1
:103F2000FF0AF0920C01E0920B0183E191E02C2F4B
:103F3000281B201728F31CC0E0912001F0912101DB
:103F4000A3E1B1E086FF09C084918D93319683E1AE
:103F500091E0800F8A13F8CF07C081918D9383E1A0
:103F600091E0800F8A13F9CFF0932101E0932001B3
:103F7000093058F4602F83E191E0EBDC0C5F0C30EA
:103F800041F08FEF8093010104C08FEF8093010116
:103F90000EE10093000184E199B19C7031F48150ED
:103FA000D9F71092230110921D01103118F01D99BC
:103FB000105104C0123010F01D9B125011114ACE46
:103FC0002ECEF999FECF92BD81BDF89A992780B582
:103FD0000895262FF999FECF1FBA92BD81BD20BD4D
:103FE0000FB6F894FA9AF99A0FBE01960895F894CC
:103FF000FFCF5AFF1E940600FFFFFFFFFFFFFFFFEA
:00000001FF
